{
  "contractName": "Nuftu",
  "abi": [
    {
      "inputs": [
        {
          "internalType": "string",
          "name": "baseTokenURI",
          "type": "string"
        }
      ],
      "stateMutability": "nonpayable",
      "type": "constructor"
    },
    {
      "anonymous": false,
      "inputs": [
        {
          "indexed": true,
          "internalType": "address",
          "name": "owner",
          "type": "address"
        },
        {
          "indexed": true,
          "internalType": "address",
          "name": "approved",
          "type": "address"
        },
        {
          "indexed": true,
          "internalType": "uint256",
          "name": "tokenId",
          "type": "uint256"
        }
      ],
      "name": "Approval",
      "type": "event"
    },
    {
      "anonymous": false,
      "inputs": [
        {
          "indexed": true,
          "internalType": "address",
          "name": "owner",
          "type": "address"
        },
        {
          "indexed": true,
          "internalType": "address",
          "name": "operator",
          "type": "address"
        },
        {
          "indexed": false,
          "internalType": "bool",
          "name": "approved",
          "type": "bool"
        }
      ],
      "name": "ApprovalForAll",
      "type": "event"
    },
    {
      "anonymous": false,
      "inputs": [
        {
          "indexed": true,
          "internalType": "address",
          "name": "from",
          "type": "address"
        },
        {
          "indexed": true,
          "internalType": "address",
          "name": "to",
          "type": "address"
        },
        {
          "indexed": true,
          "internalType": "uint256",
          "name": "tokenId",
          "type": "uint256"
        }
      ],
      "name": "Transfer",
      "type": "event"
    },
    {
      "inputs": [
        {
          "internalType": "address",
          "name": "to",
          "type": "address"
        },
        {
          "internalType": "uint256",
          "name": "tokenId",
          "type": "uint256"
        }
      ],
      "name": "approve",
      "outputs": [],
      "stateMutability": "nonpayable",
      "type": "function"
    },
    {
      "inputs": [
        {
          "internalType": "address",
          "name": "owner",
          "type": "address"
        }
      ],
      "name": "balanceOf",
      "outputs": [
        {
          "internalType": "uint256",
          "name": "",
          "type": "uint256"
        }
      ],
      "stateMutability": "view",
      "type": "function"
    },
    {
      "inputs": [
        {
          "internalType": "uint256",
          "name": "tokenId",
          "type": "uint256"
        }
      ],
      "name": "burn",
      "outputs": [],
      "stateMutability": "nonpayable",
      "type": "function"
    },
    {
      "inputs": [
        {
          "internalType": "uint256",
          "name": "tokenId",
          "type": "uint256"
        }
      ],
      "name": "getApproved",
      "outputs": [
        {
          "internalType": "address",
          "name": "",
          "type": "address"
        }
      ],
      "stateMutability": "view",
      "type": "function"
    },
    {
      "inputs": [
        {
          "internalType": "address",
          "name": "owner",
          "type": "address"
        },
        {
          "internalType": "address",
          "name": "operator",
          "type": "address"
        }
      ],
      "name": "isApprovedForAll",
      "outputs": [
        {
          "internalType": "bool",
          "name": "",
          "type": "bool"
        }
      ],
      "stateMutability": "view",
      "type": "function"
    },
    {
      "inputs": [],
      "name": "name",
      "outputs": [
        {
          "internalType": "string",
          "name": "",
          "type": "string"
        }
      ],
      "stateMutability": "view",
      "type": "function"
    },
    {
      "inputs": [
        {
          "internalType": "uint256",
          "name": "tokenId",
          "type": "uint256"
        }
      ],
      "name": "ownerOf",
      "outputs": [
        {
          "internalType": "address",
          "name": "",
          "type": "address"
        }
      ],
      "stateMutability": "view",
      "type": "function"
    },
    {
      "inputs": [
        {
          "internalType": "address",
          "name": "from",
          "type": "address"
        },
        {
          "internalType": "address",
          "name": "to",
          "type": "address"
        },
        {
          "internalType": "uint256",
          "name": "tokenId",
          "type": "uint256"
        }
      ],
      "name": "safeTransferFrom",
      "outputs": [],
      "stateMutability": "nonpayable",
      "type": "function"
    },
    {
      "inputs": [
        {
          "internalType": "address",
          "name": "from",
          "type": "address"
        },
        {
          "internalType": "address",
          "name": "to",
          "type": "address"
        },
        {
          "internalType": "uint256",
          "name": "tokenId",
          "type": "uint256"
        },
        {
          "internalType": "bytes",
          "name": "_data",
          "type": "bytes"
        }
      ],
      "name": "safeTransferFrom",
      "outputs": [],
      "stateMutability": "nonpayable",
      "type": "function"
    },
    {
      "inputs": [
        {
          "internalType": "address",
          "name": "operator",
          "type": "address"
        },
        {
          "internalType": "bool",
          "name": "approved",
          "type": "bool"
        }
      ],
      "name": "setApprovalForAll",
      "outputs": [],
      "stateMutability": "nonpayable",
      "type": "function"
    },
    {
      "inputs": [],
      "name": "symbol",
      "outputs": [
        {
          "internalType": "string",
          "name": "",
          "type": "string"
        }
      ],
      "stateMutability": "view",
      "type": "function"
    },
    {
      "inputs": [
        {
          "internalType": "uint256",
          "name": "index",
          "type": "uint256"
        }
      ],
      "name": "tokenByIndex",
      "outputs": [
        {
          "internalType": "uint256",
          "name": "",
          "type": "uint256"
        }
      ],
      "stateMutability": "view",
      "type": "function"
    },
    {
      "inputs": [
        {
          "internalType": "address",
          "name": "owner",
          "type": "address"
        },
        {
          "internalType": "uint256",
          "name": "index",
          "type": "uint256"
        }
      ],
      "name": "tokenOfOwnerByIndex",
      "outputs": [
        {
          "internalType": "uint256",
          "name": "",
          "type": "uint256"
        }
      ],
      "stateMutability": "view",
      "type": "function"
    },
    {
      "inputs": [
        {
          "internalType": "uint256",
          "name": "tokenId",
          "type": "uint256"
        }
      ],
      "name": "tokenURI",
      "outputs": [
        {
          "internalType": "string",
          "name": "",
          "type": "string"
        }
      ],
      "stateMutability": "view",
      "type": "function"
    },
    {
      "inputs": [],
      "name": "totalSupply",
      "outputs": [
        {
          "internalType": "uint256",
          "name": "",
          "type": "uint256"
        }
      ],
      "stateMutability": "view",
      "type": "function"
    },
    {
      "inputs": [
        {
          "internalType": "address",
          "name": "from",
          "type": "address"
        },
        {
          "internalType": "address",
          "name": "to",
          "type": "address"
        },
        {
          "internalType": "uint256",
          "name": "tokenId",
          "type": "uint256"
        }
      ],
      "name": "transferFrom",
      "outputs": [],
      "stateMutability": "nonpayable",
      "type": "function"
    },
    {
      "inputs": [
        {
          "internalType": "address",
          "name": "to",
          "type": "address"
        }
      ],
      "name": "mint",
      "outputs": [
        {
          "internalType": "uint256",
          "name": "",
          "type": "uint256"
        }
      ],
      "stateMutability": "nonpayable",
      "type": "function"
    },
    {
      "inputs": [
        {
          "internalType": "bytes4",
          "name": "interfaceId",
          "type": "bytes4"
        }
      ],
      "name": "supportsInterface",
      "outputs": [
        {
          "internalType": "bool",
          "name": "",
          "type": "bool"
        }
      ],
      "stateMutability": "view",
      "type": "function"
    }
  ],
  "bytecode": "0x60806040523480156200001157600080fd5b50604051620035c9380380620035c9833981810160405281019062000037919062000271565b6040518060400160405280600981526020017f4e75667475204e465400000000000000000000000000000000000000000000008152506040518060400160405280600581526020017f4e554654550000000000000000000000000000000000000000000000000000008152508160009080519060200190620000bb9291906200014f565b508060019080519060200190620000d49291906200014f565b50505080600c9080519060200190620000ef9291906200014f565b50620001006200014760201b60201c565b600a60006101000a81548173ffffffffffffffffffffffffffffffffffffffff021916908373ffffffffffffffffffffffffffffffffffffffff16021790555050620003e7565b600033905090565b8280546200015d9062000353565b90600052602060002090601f016020900481019282620001815760008555620001cd565b82601f106200019c57805160ff1916838001178555620001cd565b82800160010185558215620001cd579182015b82811115620001cc578251825591602001919060010190620001af565b5b509050620001dc9190620001e0565b5090565b5b80821115620001fb576000816000905550600101620001e1565b5090565b6000620002166200021084620002ea565b620002b6565b9050828152602081018484840111156200022f57600080fd5b6200023c8482856200031d565b509392505050565b600082601f8301126200025657600080fd5b815162000268848260208601620001ff565b91505092915050565b6000602082840312156200028457600080fd5b600082015167ffffffffffffffff8111156200029f57600080fd5b620002ad8482850162000244565b91505092915050565b6000604051905081810181811067ffffffffffffffff82111715620002e057620002df620003b8565b5b8060405250919050565b600067ffffffffffffffff821115620003085762000307620003b8565b5b601f19601f8301169050602081019050919050565b60005b838110156200033d57808201518184015260208101905062000320565b838111156200034d576000848401525b50505050565b600060028204905060018216806200036c57607f821691505b6020821081141562000383576200038262000389565b5b50919050565b7f4e487b7100000000000000000000000000000000000000000000000000000000600052602260045260246000fd5b7f4e487b7100000000000000000000000000000000000000000000000000000000600052604160045260246000fd5b6131d280620003f76000396000f3fe608060405234801561001057600080fd5b50600436106101165760003560e01c80634f6ccce7116100a257806395d89b411161007157806395d89b4114610317578063a22cb46514610335578063b88d4fde14610351578063c87b56dd1461036d578063e985e9c51461039d57610116565b80634f6ccce7146102575780636352211e146102875780636a627842146102b757806370a08231146102e757610116565b806318160ddd116100e957806318160ddd146101b557806323b872dd146101d35780632f745c59146101ef57806342842e0e1461021f57806342966c681461023b57610116565b806301ffc9a71461011b57806306fdde031461014b578063081812fc14610169578063095ea7b314610199575b600080fd5b610135600480360381019061013091906122b0565b6103cd565b6040516101429190612b1a565b60405180910390f35b6101536103df565b6040516101609190612b35565b60405180910390f35b610183600480360381019061017e9190612302565b610471565b6040516101909190612ab3565b60405180910390f35b6101b360048036038101906101ae9190612274565b6104f6565b005b6101bd61060e565b6040516101ca9190612d97565b60405180910390f35b6101ed60048036038101906101e8919061216e565b61061b565b005b61020960048036038101906102049190612274565b61067b565b6040516102169190612d97565b60405180910390f35b6102396004803603810190610234919061216e565b610720565b005b61025560048036038101906102509190612302565b610740565b005b610271600480360381019061026c9190612302565b61079c565b60405161027e9190612d97565b60405180910390f35b6102a1600480360381019061029c9190612302565b610833565b6040516102ae9190612ab3565b60405180910390f35b6102d160048036038101906102cc9190612109565b6108e5565b6040516102de9190612d97565b60405180910390f35b61030160048036038101906102fc9190612109565b6109ba565b60405161030e9190612d97565b60405180910390f35b61031f610a72565b60405161032c9190612b35565b60405180910390f35b61034f600480360381019061034a9190612238565b610b04565b005b61036b600480360381019061036691906121bd565b610c85565b005b61038760048036038101906103829190612302565b610ce7565b6040516103949190612b35565b60405180910390f35b6103b760048036038101906103b29190612132565b610d8e565b6040516103c49190612b1a565b60405180910390f35b60006103d882610e22565b9050919050565b6060600080546103ee90612fc7565b80601f016020809104026020016040519081016040528092919081815260200182805461041a90612fc7565b80156104675780601f1061043c57610100808354040283529160200191610467565b820191906000526020600020905b81548152906001019060200180831161044a57829003601f168201915b5050505050905090565b600061047c82610e9c565b6104bb576040517f08c379a00000000000000000000000000000000000000000000000000000000081526004016104b290612cb7565b60405180910390fd5b6004600083815260200190815260200160002060009054906101000a900473ffffffffffffffffffffffffffffffffffffffff169050919050565b600061050182610833565b90508073ffffffffffffffffffffffffffffffffffffffff168373ffffffffffffffffffffffffffffffffffffffff161415610572576040517f08c379a000000000000000000000000000000000000000000000000000000000815260040161056990612d17565b60405180910390fd5b8073ffffffffffffffffffffffffffffffffffffffff16610591610f08565b73ffffffffffffffffffffffffffffffffffffffff1614806105c057506105bf816105ba610f08565b610d8e565b5b6105ff576040517f08c379a00000000000000000000000000000000000000000000000000000000081526004016105f690612c37565b60405180910390fd5b6106098383610f10565b505050565b6000600880549050905090565b61062c610626610f08565b82610fc9565b61066b576040517f08c379a000000000000000000000000000000000000000000000000000000000815260040161066290612d37565b60405180910390fd5b6106768383836110a7565b505050565b6000610686836109ba565b82106106c7576040517f08c379a00000000000000000000000000000000000000000000000000000000081526004016106be90612b57565b60405180910390fd5b600660008473ffffffffffffffffffffffffffffffffffffffff1673ffffffffffffffffffffffffffffffffffffffff168152602001908152602001600020600083815260200190815260200160002054905092915050565b61073b83838360405180602001604052806000815250610c85565b505050565b61075161074b610f08565b82610fc9565b610790576040517f08c379a000000000000000000000000000000000000000000000000000000000815260040161078790612d77565b60405180910390fd5b61079981611303565b50565b60006107a661060e565b82106107e7576040517f08c379a00000000000000000000000000000000000000000000000000000000081526004016107de90612d57565b60405180910390fd5b60088281548110610821577f4e487b7100000000000000000000000000000000000000000000000000000000600052603260045260246000fd5b90600052602060002001549050919050565b6000806002600084815260200190815260200160002060009054906101000a900473ffffffffffffffffffffffffffffffffffffffff169050600073ffffffffffffffffffffffffffffffffffffffff168173ffffffffffffffffffffffffffffffffffffffff1614156108dc576040517f08c379a00000000000000000000000000000000000000000000000000000000081526004016108d390612c77565b60405180910390fd5b80915050919050565b60006108ef610f08565b73ffffffffffffffffffffffffffffffffffffffff16600a60009054906101000a900473ffffffffffffffffffffffffffffffffffffffff1673ffffffffffffffffffffffffffffffffffffffff161461097e576040517f08c379a000000000000000000000000000000000000000000000000000000000815260040161097590612bb7565b60405180910390fd5b600061098a600b611414565b90506109968382611422565b6109a0600b6115f0565b6109b16109ab610f08565b82610f10565b80915050919050565b60008073ffffffffffffffffffffffffffffffffffffffff168273ffffffffffffffffffffffffffffffffffffffff161415610a2b576040517f08c379a0000000000000000000000000000000000000000000000000000000008152600401610a2290612c57565b60405180910390fd5b600360008373ffffffffffffffffffffffffffffffffffffffff1673ffffffffffffffffffffffffffffffffffffffff168152602001908152602001600020549050919050565b606060018054610a8190612fc7565b80601f0160208091040260200160405190810160405280929190818152602001828054610aad90612fc7565b8015610afa5780601f10610acf57610100808354040283529160200191610afa565b820191906000526020600020905b815481529060010190602001808311610add57829003601f168201915b5050505050905090565b610b0c610f08565b73ffffffffffffffffffffffffffffffffffffffff168273ffffffffffffffffffffffffffffffffffffffff161415610b7a576040517f08c379a0000000000000000000000000000000000000000000000000000000008152600401610b7190612bf7565b60405180910390fd5b8060056000610b87610f08565b73ffffffffffffffffffffffffffffffffffffffff1673ffffffffffffffffffffffffffffffffffffffff16815260200190815260200160002060008473ffffffffffffffffffffffffffffffffffffffff1673ffffffffffffffffffffffffffffffffffffffff16815260200190815260200160002060006101000a81548160ff0219169083151502179055508173ffffffffffffffffffffffffffffffffffffffff16610c34610f08565b73ffffffffffffffffffffffffffffffffffffffff167f17307eab39ab6107e8899845ad3d59bd9653f200f220920489ca2b5937696c3183604051610c799190612b1a565b60405180910390a35050565b610c96610c90610f08565b83610fc9565b610cd5576040517f08c379a0000000000000000000000000000000000000000000000000000000008152600401610ccc90612d37565b60405180910390fd5b610ce184848484611606565b50505050565b6060610cf282610e9c565b610d31576040517f08c379a0000000000000000000000000000000000000000000000000000000008152600401610d2890612cf7565b60405180910390fd5b6000610d3b611662565b90506000815111610d5b5760405180602001604052806000815250610d86565b80610d65846116f4565b604051602001610d76929190612a8f565b6040516020818303038152906040525b915050919050565b6000600560008473ffffffffffffffffffffffffffffffffffffffff1673ffffffffffffffffffffffffffffffffffffffff16815260200190815260200160002060008373ffffffffffffffffffffffffffffffffffffffff1673ffffffffffffffffffffffffffffffffffffffff16815260200190815260200160002060009054906101000a900460ff16905092915050565b60007f780e9d63000000000000000000000000000000000000000000000000000000007bffffffffffffffffffffffffffffffffffffffffffffffffffffffff1916827bffffffffffffffffffffffffffffffffffffffffffffffffffffffff19161480610e955750610e94826118a1565b5b9050919050565b60008073ffffffffffffffffffffffffffffffffffffffff166002600084815260200190815260200160002060009054906101000a900473ffffffffffffffffffffffffffffffffffffffff1673ffffffffffffffffffffffffffffffffffffffff1614159050919050565b600033905090565b816004600083815260200190815260200160002060006101000a81548173ffffffffffffffffffffffffffffffffffffffff021916908373ffffffffffffffffffffffffffffffffffffffff160217905550808273ffffffffffffffffffffffffffffffffffffffff16610f8383610833565b73ffffffffffffffffffffffffffffffffffffffff167f8c5be1e5ebec7d5bd14f71427d1e84f3dd0314c0f7b2291e5b200ac8c7c3b92560405160405180910390a45050565b6000610fd482610e9c565b611013576040517f08c379a000000000000000000000000000000000000000000000000000000000815260040161100a90612c17565b60405180910390fd5b600061101e83610833565b90508073ffffffffffffffffffffffffffffffffffffffff168473ffffffffffffffffffffffffffffffffffffffff16148061108d57508373ffffffffffffffffffffffffffffffffffffffff1661107584610471565b73ffffffffffffffffffffffffffffffffffffffff16145b8061109e575061109d8185610d8e565b5b91505092915050565b8273ffffffffffffffffffffffffffffffffffffffff166110c782610833565b73ffffffffffffffffffffffffffffffffffffffff161461111d576040517f08c379a000000000000000000000000000000000000000000000000000000000815260040161111490612cd7565b60405180910390fd5b600073ffffffffffffffffffffffffffffffffffffffff168273ffffffffffffffffffffffffffffffffffffffff16141561118d576040517f08c379a000000000000000000000000000000000000000000000000000000000815260040161118490612bd7565b60405180910390fd5b611198838383611983565b6111a3600082610f10565b6001600360008573ffffffffffffffffffffffffffffffffffffffff1673ffffffffffffffffffffffffffffffffffffffff16815260200190815260200160002060008282546111f39190612edd565b925050819055506001600360008473ffffffffffffffffffffffffffffffffffffffff1673ffffffffffffffffffffffffffffffffffffffff168152602001908152602001600020600082825461124a9190612e56565b92505081905550816002600083815260200190815260200160002060006101000a81548173ffffffffffffffffffffffffffffffffffffffff021916908373ffffffffffffffffffffffffffffffffffffffff160217905550808273ffffffffffffffffffffffffffffffffffffffff168473ffffffffffffffffffffffffffffffffffffffff167fddf252ad1be2c89b69c2b068fc378daa952ba7f163c4a11628f55a4df523b3ef60405160405180910390a4505050565b600061130e82610833565b905061131c81600084611983565b611327600083610f10565b6001600360008373ffffffffffffffffffffffffffffffffffffffff1673ffffffffffffffffffffffffffffffffffffffff16815260200190815260200160002060008282546113779190612edd565b925050819055506002600083815260200190815260200160002060006101000a81549073ffffffffffffffffffffffffffffffffffffffff021916905581600073ffffffffffffffffffffffffffffffffffffffff168273ffffffffffffffffffffffffffffffffffffffff167fddf252ad1be2c89b69c2b068fc378daa952ba7f163c4a11628f55a4df523b3ef60405160405180910390a45050565b600081600001549050919050565b600073ffffffffffffffffffffffffffffffffffffffff168273ffffffffffffffffffffffffffffffffffffffff161415611492576040517f08c379a000000000000000000000000000000000000000000000000000000000815260040161148990612c97565b60405180910390fd5b61149b81610e9c565b156114db576040517f08c379a00000000000000000000000000000000000000000000000000000000081526004016114d290612b97565b60405180910390fd5b6114e760008383611983565b6001600360008473ffffffffffffffffffffffffffffffffffffffff1673ffffffffffffffffffffffffffffffffffffffff16815260200190815260200160002060008282546115379190612e56565b92505081905550816002600083815260200190815260200160002060006101000a81548173ffffffffffffffffffffffffffffffffffffffff021916908373ffffffffffffffffffffffffffffffffffffffff160217905550808273ffffffffffffffffffffffffffffffffffffffff16600073ffffffffffffffffffffffffffffffffffffffff167fddf252ad1be2c89b69c2b068fc378daa952ba7f163c4a11628f55a4df523b3ef60405160405180910390a45050565b6001816000016000828254019250508190555050565b6116118484846110a7565b61161d84848484611993565b61165c576040517f08c379a000000000000000000000000000000000000000000000000000000000815260040161165390612b77565b60405180910390fd5b50505050565b6060600c805461167190612fc7565b80601f016020809104026020016040519081016040528092919081815260200182805461169d90612fc7565b80156116ea5780601f106116bf576101008083540402835291602001916116ea565b820191906000526020600020905b8154815290600101906020018083116116cd57829003601f168201915b5050505050905090565b6060600082141561173c576040518060400160405280600181526020017f3000000000000000000000000000000000000000000000000000000000000000815250905061189c565b600082905060005b6000821461176e57808061175790612ff9565b915050600a826117679190612eac565b9150611744565b60008167ffffffffffffffff8111156117b0577f4e487b7100000000000000000000000000000000000000000000000000000000600052604160045260246000fd5b6040519080825280601f01601f1916602001820160405280156117e25781602001600182028036833780820191505090505b5090505b60008514611895576001826117fb9190612edd565b9150600a8561180a9190613042565b60306118169190612e56565b60f81b818381518110611852577f4e487b7100000000000000000000000000000000000000000000000000000000600052603260045260246000fd5b60200101907effffffffffffffffffffffffffffffffffffffffffffffffffffffffffffff1916908160001a905350600a8561188e9190612eac565b94506117e6565b8093505050505b919050565b60007f80ac58cd000000000000000000000000000000000000000000000000000000007bffffffffffffffffffffffffffffffffffffffffffffffffffffffff1916827bffffffffffffffffffffffffffffffffffffffffffffffffffffffff1916148061196c57507f5b5e139f000000000000000000000000000000000000000000000000000000007bffffffffffffffffffffffffffffffffffffffffffffffffffffffff1916827bffffffffffffffffffffffffffffffffffffffffffffffffffffffff1916145b8061197c575061197b82611b2a565b5b9050919050565b61198e838383611b94565b505050565b60006119b48473ffffffffffffffffffffffffffffffffffffffff16611ca8565b15611b1d578373ffffffffffffffffffffffffffffffffffffffff1663150b7a026119dd610f08565b8786866040518563ffffffff1660e01b81526004016119ff9493929190612ace565b602060405180830381600087803b158015611a1957600080fd5b505af1925050508015611a4a57506040513d601f19601f82011682018060405250810190611a4791906122d9565b60015b611acd573d8060008114611a7a576040519150601f19603f3d011682016040523d82523d6000602084013e611a7f565b606091505b50600081511415611ac5576040517f08c379a0000000000000000000000000000000000000000000000000000000008152600401611abc90612b77565b60405180910390fd5b805181602001fd5b63150b7a0260e01b7bffffffffffffffffffffffffffffffffffffffffffffffffffffffff1916817bffffffffffffffffffffffffffffffffffffffffffffffffffffffff191614915050611b22565b600190505b949350505050565b60007f01ffc9a7000000000000000000000000000000000000000000000000000000007bffffffffffffffffffffffffffffffffffffffffffffffffffffffff1916827bffffffffffffffffffffffffffffffffffffffffffffffffffffffff1916149050919050565b611b9f838383611cbb565b600073ffffffffffffffffffffffffffffffffffffffff168373ffffffffffffffffffffffffffffffffffffffff161415611be257611bdd81611cc0565b611c21565b8173ffffffffffffffffffffffffffffffffffffffff168373ffffffffffffffffffffffffffffffffffffffff1614611c2057611c1f8382611d09565b5b5b600073ffffffffffffffffffffffffffffffffffffffff168273ffffffffffffffffffffffffffffffffffffffff161415611c6457611c5f81611e76565b611ca3565b8273ffffffffffffffffffffffffffffffffffffffff168273ffffffffffffffffffffffffffffffffffffffff1614611ca257611ca18282611fb9565b5b5b505050565b600080823b905060008111915050919050565b505050565b6008805490506009600083815260200190815260200160002081905550600881908060018154018082558091505060019003906000526020600020016000909190919091505550565b60006001611d16846109ba565b611d209190612edd565b9050600060076000848152602001908152602001600020549050818114611e05576000600660008673ffffffffffffffffffffffffffffffffffffffff1673ffffffffffffffffffffffffffffffffffffffff168152602001908152602001600020600084815260200190815260200160002054905080600660008773ffffffffffffffffffffffffffffffffffffffff1673ffffffffffffffffffffffffffffffffffffffff168152602001908152602001600020600084815260200190815260200160002081905550816007600083815260200190815260200160002081905550505b6007600084815260200190815260200160002060009055600660008573ffffffffffffffffffffffffffffffffffffffff1673ffffffffffffffffffffffffffffffffffffffff16815260200190815260200160002060008381526020019081526020016000206000905550505050565b60006001600880549050611e8a9190612edd565b9050600060096000848152602001908152602001600020549050600060088381548110611ee0577f4e487b7100000000000000000000000000000000000000000000000000000000600052603260045260246000fd5b906000526020600020015490508060088381548110611f28577f4e487b7100000000000000000000000000000000000000000000000000000000600052603260045260246000fd5b906000526020600020018190555081600960008381526020019081526020016000208190555060096000858152602001908152602001600020600090556008805480611f9d577f4e487b7100000000000000000000000000000000000000000000000000000000600052603160045260246000fd5b6001900381819060005260206000200160009055905550505050565b6000611fc4836109ba565b905081600660008573ffffffffffffffffffffffffffffffffffffffff1673ffffffffffffffffffffffffffffffffffffffff168152602001908152602001600020600083815260200190815260200160002081905550806007600084815260200190815260200160002081905550505050565b600061204b61204684612de3565b612db2565b90508281526020810184848401111561206357600080fd5b61206e848285612f85565b509392505050565b60008135905061208581613140565b92915050565b60008135905061209a81613157565b92915050565b6000813590506120af8161316e565b92915050565b6000815190506120c48161316e565b92915050565b600082601f8301126120db57600080fd5b81356120eb848260208601612038565b91505092915050565b60008135905061210381613185565b92915050565b60006020828403121561211b57600080fd5b600061212984828501612076565b91505092915050565b6000806040838503121561214557600080fd5b600061215385828601612076565b925050602061216485828601612076565b9150509250929050565b60008060006060848603121561218357600080fd5b600061219186828701612076565b93505060206121a286828701612076565b92505060406121b3868287016120f4565b9150509250925092565b600080600080608085870312156121d357600080fd5b60006121e187828801612076565b94505060206121f287828801612076565b9350506040612203878288016120f4565b925050606085013567ffffffffffffffff81111561222057600080fd5b61222c878288016120ca565b91505092959194509250565b6000806040838503121561224b57600080fd5b600061225985828601612076565b925050602061226a8582860161208b565b9150509250929050565b6000806040838503121561228757600080fd5b600061229585828601612076565b92505060206122a6858286016120f4565b9150509250929050565b6000602082840312156122c257600080fd5b60006122d0848285016120a0565b91505092915050565b6000602082840312156122eb57600080fd5b60006122f9848285016120b5565b91505092915050565b60006020828403121561231457600080fd5b6000612322848285016120f4565b91505092915050565b61233481612f11565b82525050565b61234381612f23565b82525050565b600061235482612e13565b61235e8185612e29565b935061236e818560208601612f94565b6123778161312f565b840191505092915050565b600061238d82612e1e565b6123978185612e3a565b93506123a7818560208601612f94565b6123b08161312f565b840191505092915050565b60006123c682612e1e565b6123d08185612e4b565b93506123e0818560208601612f94565b80840191505092915050565b60006123f9602b83612e3a565b91507f455243373231456e756d657261626c653a206f776e657220696e646578206f7560008301527f74206f6620626f756e64730000000000000000000000000000000000000000006020830152604082019050919050565b600061245f603283612e3a565b91507f4552433732313a207472616e7366657220746f206e6f6e20455243373231526560008301527f63656976657220696d706c656d656e74657200000000000000000000000000006020830152604082019050919050565b60006124c5601c83612e3a565b91507f4552433732313a20746f6b656e20616c7265616479206d696e746564000000006000830152602082019050919050565b6000612505601e83612e3a565b91507f4e756674753a206d7573742062652063726561746f7220746f206d696e7400006000830152602082019050919050565b6000612545602483612e3a565b91507f4552433732313a207472616e7366657220746f20746865207a65726f2061646460008301527f72657373000000000000000000000000000000000000000000000000000000006020830152604082019050919050565b60006125ab601983612e3a565b91507f4552433732313a20617070726f766520746f2063616c6c6572000000000000006000830152602082019050919050565b60006125eb602c83612e3a565b91507f4552433732313a206f70657261746f7220717565727920666f72206e6f6e657860008301527f697374656e7420746f6b656e00000000000000000000000000000000000000006020830152604082019050919050565b6000612651603883612e3a565b91507f4552433732313a20617070726f76652063616c6c6572206973206e6f74206f7760008301527f6e6572206e6f7220617070726f76656420666f7220616c6c00000000000000006020830152604082019050919050565b60006126b7602a83612e3a565b91507f4552433732313a2062616c616e636520717565727920666f7220746865207a6560008301527f726f2061646472657373000000000000000000000000000000000000000000006020830152604082019050919050565b600061271d602983612e3a565b91507f4552433732313a206f776e657220717565727920666f72206e6f6e657869737460008301527f656e7420746f6b656e00000000000000000000000000000000000000000000006020830152604082019050919050565b6000612783602083612e3a565b91507f4552433732313a206d696e7420746f20746865207a65726f20616464726573736000830152602082019050919050565b60006127c3602c83612e3a565b91507f4552433732313a20617070726f76656420717565727920666f72206e6f6e657860008301527f697374656e7420746f6b656e00000000000000000000000000000000000000006020830152604082019050919050565b6000612829602983612e3a565b91507f4552433732313a207472616e73666572206f6620746f6b656e2074686174206960008301527f73206e6f74206f776e00000000000000000000000000000000000000000000006020830152604082019050919050565b600061288f602f83612e3a565b91507f4552433732314d657461646174613a2055524920717565727920666f72206e6f60008301527f6e6578697374656e7420746f6b656e00000000000000000000000000000000006020830152604082019050919050565b60006128f5602183612e3a565b91507f4552433732313a20617070726f76616c20746f2063757272656e74206f776e6560008301527f72000000000000000000000000000000000000000000000000000000000000006020830152604082019050919050565b600061295b603183612e3a565b91507f4552433732313a207472616e736665722063616c6c6572206973206e6f74206f60008301527f776e6572206e6f7220617070726f7665640000000000000000000000000000006020830152604082019050919050565b60006129c1602c83612e3a565b91507f455243373231456e756d657261626c653a20676c6f62616c20696e646578206f60008301527f7574206f6620626f756e647300000000000000000000000000000000000000006020830152604082019050919050565b6000612a27603083612e3a565b91507f4552433732314275726e61626c653a2063616c6c6572206973206e6f74206f7760008301527f6e6572206e6f7220617070726f766564000000000000000000000000000000006020830152604082019050919050565b612a8981612f7b565b82525050565b6000612a9b82856123bb565b9150612aa782846123bb565b91508190509392505050565b6000602082019050612ac8600083018461232b565b92915050565b6000608082019050612ae3600083018761232b565b612af0602083018661232b565b612afd6040830185612a80565b8181036060830152612b0f8184612349565b905095945050505050565b6000602082019050612b2f600083018461233a565b92915050565b60006020820190508181036000830152612b4f8184612382565b905092915050565b60006020820190508181036000830152612b70816123ec565b9050919050565b60006020820190508181036000830152612b9081612452565b9050919050565b60006020820190508181036000830152612bb0816124b8565b9050919050565b60006020820190508181036000830152612bd0816124f8565b9050919050565b60006020820190508181036000830152612bf081612538565b9050919050565b60006020820190508181036000830152612c108161259e565b9050919050565b60006020820190508181036000830152612c30816125de565b9050919050565b60006020820190508181036000830152612c5081612644565b9050919050565b60006020820190508181036000830152612c70816126aa565b9050919050565b60006020820190508181036000830152612c9081612710565b9050919050565b60006020820190508181036000830152612cb081612776565b9050919050565b60006020820190508181036000830152612cd0816127b6565b9050919050565b60006020820190508181036000830152612cf08161281c565b9050919050565b60006020820190508181036000830152612d1081612882565b9050919050565b60006020820190508181036000830152612d30816128e8565b9050919050565b60006020820190508181036000830152612d508161294e565b9050919050565b60006020820190508181036000830152612d70816129b4565b9050919050565b60006020820190508181036000830152612d9081612a1a565b9050919050565b6000602082019050612dac6000830184612a80565b92915050565b6000604051905081810181811067ffffffffffffffff82111715612dd957612dd8613100565b5b8060405250919050565b600067ffffffffffffffff821115612dfe57612dfd613100565b5b601f19601f8301169050602081019050919050565b600081519050919050565b600081519050919050565b600082825260208201905092915050565b600082825260208201905092915050565b600081905092915050565b6000612e6182612f7b565b9150612e6c83612f7b565b9250827fffffffffffffffffffffffffffffffffffffffffffffffffffffffffffffffff03821115612ea157612ea0613073565b5b828201905092915050565b6000612eb782612f7b565b9150612ec283612f7b565b925082612ed257612ed16130a2565b5b828204905092915050565b6000612ee882612f7b565b9150612ef383612f7b565b925082821015612f0657612f05613073565b5b828203905092915050565b6000612f1c82612f5b565b9050919050565b60008115159050919050565b60007fffffffff0000000000000000000000000000000000000000000000000000000082169050919050565b600073ffffffffffffffffffffffffffffffffffffffff82169050919050565b6000819050919050565b82818337600083830152505050565b60005b83811015612fb2578082015181840152602081019050612f97565b83811115612fc1576000848401525b50505050565b60006002820490506001821680612fdf57607f821691505b60208210811415612ff357612ff26130d1565b5b50919050565b600061300482612f7b565b91507fffffffffffffffffffffffffffffffffffffffffffffffffffffffffffffffff82141561303757613036613073565b5b600182019050919050565b600061304d82612f7b565b915061305883612f7b565b925082613068576130676130a2565b5b828206905092915050565b7f4e487b7100000000000000000000000000000000000000000000000000000000600052601160045260246000fd5b7f4e487b7100000000000000000000000000000000000000000000000000000000600052601260045260246000fd5b7f4e487b7100000000000000000000000000000000000000000000000000000000600052602260045260246000fd5b7f4e487b7100000000000000000000000000000000000000000000000000000000600052604160045260246000fd5b6000601f19601f8301169050919050565b61314981612f11565b811461315457600080fd5b50565b61316081612f23565b811461316b57600080fd5b50565b61317781612f2f565b811461318257600080fd5b50565b61318e81612f7b565b811461319957600080fd5b5056fea264697066735822122065d9ba18e3ce494e046d8f1034188161633ae8fdb3061ec5d4861a12cdf1d57664736f6c63430008000033",
  "immutableReferences": {},
  "source": "// SPDX-License-Identifier: MIT\n\npragma solidity ^0.8.0;\n\nimport \"@openzeppelin/contracts/token/ERC721/ERC721.sol\";\nimport \"@openzeppelin/contracts/token/ERC721/extensions/ERC721Enumerable.sol\";\nimport \"@openzeppelin/contracts/token/ERC721/extensions/ERC721Burnable.sol\";\nimport \"@openzeppelin/contracts/utils/Context.sol\";\nimport \"@openzeppelin/contracts/utils/Counters.sol\";\n\n/**\n *\n */\ncontract Nuftu is Context, ERC721Enumerable, ERC721Burnable {\n    using Counters for Counters.Counter;\n\n    address private _creator;\n\n    Counters.Counter private _tokenIdTracker;\n\n    string private _baseTokenURI;\n\n    /**\n     * Token URIs will be autogenerated based on `baseURI` and their token IDs.\n     * See {ERC721-tokenURI}.\n     */\n    constructor(string memory baseTokenURI) ERC721(\"Nuftu NFT\", \"NUFTU\") {\n        _baseTokenURI = baseTokenURI;\n        _creator = _msgSender();\n    }\n\n    function _baseURI() internal view virtual override returns (string memory) {\n        return _baseTokenURI;\n    }\n\n    /**\n     * @dev Creates a new token for `to`. Its token ID will be automatically\n     * assigned (and available on the emitted {IERC721-Transfer} event), and the token\n     * URI autogenerated based on the base URI passed at construction.\n     *\n     * See {ERC721-_mint}.\n     *\n     * Requirements:\n     *\n     * - the caller must be the creator.\n     */\n    function mint(address to) public virtual returns (uint256) {\n        require(_creator == _msgSender(), \"Nuftu: must be creator to mint\");\n\n        // We cannot just use balanceOf to create the new tokenId because tokens\n        // can be burned (destroyed), so we need a separate counter.\n        uint256 tokenId = _tokenIdTracker.current();\n        _mint(to, tokenId);\n        _tokenIdTracker.increment();\n        _approve(_msgSender(), tokenId);\n        return tokenId;\n    }\n\n    function _beforeTokenTransfer(address from, address to, uint256 tokenId) internal virtual override(ERC721, ERC721Enumerable) {\n        super._beforeTokenTransfer(from, to, tokenId);\n    }\n\n    /**\n     * @dev See {IERC165-supportsInterface}.\n     */\n    function supportsInterface(bytes4 interfaceId) public view virtual override(ERC721, ERC721Enumerable) returns (bool) {\n        return super.supportsInterface(interfaceId);\n    }\n}\n",
  "sourcePath": "/home/rainer/Software_Dev/IdeaProjects/EthTest/src/main/resources/Truffle_Solidity_contracts/contracts/Nuftu.sol",
  "compiler": {
    "name": "solc",
    "version": "0.8.0+commit.c7dfd78e.Emscripten.clang"
  },
  "schemaVersion": "3.3.4",
  "updatedAt": "2021-04-29T18:21:30.527Z",
  "devdoc": {
    "kind": "dev",
    "methods": {
      "approve(address,uint256)": {
        "details": "See {IERC721-approve}."
      },
      "balanceOf(address)": {
        "details": "See {IERC721-balanceOf}."
      },
      "burn(uint256)": {
        "details": "Burns `tokenId`. See {ERC721-_burn}. Requirements: - The caller must own `tokenId` or be an approved operator."
      },
      "getApproved(uint256)": {
        "details": "See {IERC721-getApproved}."
      },
      "isApprovedForAll(address,address)": {
        "details": "See {IERC721-isApprovedForAll}."
      },
      "mint(address)": {
        "details": "Creates a new token for `to`. Its token ID will be automatically assigned (and available on the emitted {IERC721-Transfer} event), and the token URI autogenerated based on the base URI passed at construction. See {ERC721-_mint}. Requirements: - the caller must be the creator."
      },
      "name()": {
        "details": "See {IERC721Metadata-name}."
      },
      "ownerOf(uint256)": {
        "details": "See {IERC721-ownerOf}."
      },
      "safeTransferFrom(address,address,uint256)": {
        "details": "See {IERC721-safeTransferFrom}."
      },
      "safeTransferFrom(address,address,uint256,bytes)": {
        "details": "See {IERC721-safeTransferFrom}."
      },
      "setApprovalForAll(address,bool)": {
        "details": "See {IERC721-setApprovalForAll}."
      },
      "supportsInterface(bytes4)": {
        "details": "See {IERC165-supportsInterface}."
      },
      "symbol()": {
        "details": "See {IERC721Metadata-symbol}."
      },
      "tokenByIndex(uint256)": {
        "details": "See {IERC721Enumerable-tokenByIndex}."
      },
      "tokenOfOwnerByIndex(address,uint256)": {
        "details": "See {IERC721Enumerable-tokenOfOwnerByIndex}."
      },
      "tokenURI(uint256)": {
        "details": "See {IERC721Metadata-tokenURI}."
      },
      "totalSupply()": {
        "details": "See {IERC721Enumerable-totalSupply}."
      },
      "transferFrom(address,address,uint256)": {
        "details": "See {IERC721-transferFrom}."
      }
    },
    "version": 1
  },
  "userdoc": {
    "kind": "user",
    "methods": {
      "constructor": {
        "notice": "Token URIs will be autogenerated based on `baseURI` and their token IDs. See {ERC721-tokenURI}."
      }
    },
    "version": 1
  }
}